{
  "_format": "hh-sol-artifact-1",
  "contractName": "FhenixDropBox",
  "sourceName": "contracts/FhenixDropBox.sol",
  "abi": [
    {
      "inputs": [],
      "stateMutability": "nonpayable",
      "type": "constructor"
    },
    {
      "inputs": [
        {
          "internalType": "address",
          "name": "owner",
          "type": "address"
        }
      ],
      "name": "OwnableInvalidOwner",
      "type": "error"
    },
    {
      "inputs": [
        {
          "internalType": "address",
          "name": "account",
          "type": "address"
        }
      ],
      "name": "OwnableUnauthorizedAccount",
      "type": "error"
    },
    {
      "inputs": [],
      "name": "ReentrancyGuardReentrantCall",
      "type": "error"
    },
    {
      "anonymous": false,
      "inputs": [
        {
          "indexed": true,
          "internalType": "uint256",
          "name": "fileId",
          "type": "uint256"
        },
        {
          "indexed": true,
          "internalType": "address",
          "name": "user",
          "type": "address"
        }
      ],
      "name": "AccessRevoked",
      "type": "event"
    },
    {
      "anonymous": false,
      "inputs": [
        {
          "indexed": true,
          "internalType": "uint256",
          "name": "fileId",
          "type": "uint256"
        },
        {
          "indexed": true,
          "internalType": "address",
          "name": "requester",
          "type": "address"
        },
        {
          "indexed": false,
          "internalType": "uint256",
          "name": "price",
          "type": "uint256"
        }
      ],
      "name": "FileAccessed",
      "type": "event"
    },
    {
      "anonymous": false,
      "inputs": [
        {
          "indexed": true,
          "internalType": "uint256",
          "name": "fileId",
          "type": "uint256"
        }
      ],
      "name": "FileDeactivated",
      "type": "event"
    },
    {
      "anonymous": false,
      "inputs": [
        {
          "indexed": true,
          "internalType": "uint256",
          "name": "fileId",
          "type": "uint256"
        },
        {
          "indexed": true,
          "internalType": "address",
          "name": "downloader",
          "type": "address"
        },
        {
          "indexed": true,
          "internalType": "address",
          "name": "owner",
          "type": "address"
        }
      ],
      "name": "FileDownloaded",
      "type": "event"
    },
    {
      "anonymous": false,
      "inputs": [
        {
          "indexed": true,
          "internalType": "uint256",
          "name": "fileId",
          "type": "uint256"
        }
      ],
      "name": "FileReactivated",
      "type": "event"
    },
    {
      "anonymous": false,
      "inputs": [
        {
          "indexed": true,
          "internalType": "uint256",
          "name": "fileId",
          "type": "uint256"
        },
        {
          "indexed": true,
          "internalType": "address",
          "name": "owner",
          "type": "address"
        },
        {
          "indexed": false,
          "internalType": "string",
          "name": "ipfsHash",
          "type": "string"
        },
        {
          "indexed": false,
          "internalType": "uint256",
          "name": "price",
          "type": "uint256"
        },
        {
          "indexed": false,
          "internalType": "bool",
          "name": "hasPassword",
          "type": "bool"
        }
      ],
      "name": "FileUploaded",
      "type": "event"
    },
    {
      "anonymous": false,
      "inputs": [
        {
          "indexed": true,
          "internalType": "address",
          "name": "previousOwner",
          "type": "address"
        },
        {
          "indexed": true,
          "internalType": "address",
          "name": "newOwner",
          "type": "address"
        }
      ],
      "name": "OwnershipTransferred",
      "type": "event"
    },
    {
      "inputs": [
        {
          "internalType": "address",
          "name": "creator",
          "type": "address"
        }
      ],
      "name": "authorizeCreator",
      "outputs": [],
      "stateMutability": "nonpayable",
      "type": "function"
    },
    {
      "inputs": [
        {
          "internalType": "address",
          "name": "",
          "type": "address"
        }
      ],
      "name": "authorizedFileCreator",
      "outputs": [
        {
          "internalType": "bool",
          "name": "",
          "type": "bool"
        }
      ],
      "stateMutability": "view",
      "type": "function"
    },
    {
      "inputs": [
        {
          "internalType": "uint256",
          "name": "",
          "type": "uint256"
        },
        {
          "internalType": "address",
          "name": "",
          "type": "address"
        }
      ],
      "name": "authorizedUsers",
      "outputs": [
        {
          "internalType": "bool",
          "name": "",
          "type": "bool"
        }
      ],
      "stateMutability": "view",
      "type": "function"
    },
    {
      "inputs": [
        {
          "internalType": "uint256",
          "name": "fileId",
          "type": "uint256"
        }
      ],
      "name": "deactivateFile",
      "outputs": [],
      "stateMutability": "nonpayable",
      "type": "function"
    },
    {
      "inputs": [
        {
          "internalType": "uint256",
          "name": "fileId",
          "type": "uint256"
        }
      ],
      "name": "downloadFile",
      "outputs": [],
      "stateMutability": "nonpayable",
      "type": "function"
    },
    {
      "inputs": [
        {
          "internalType": "uint256",
          "name": "",
          "type": "uint256"
        },
        {
          "internalType": "address",
          "name": "",
          "type": "address"
        }
      ],
      "name": "downloadHistory",
      "outputs": [
        {
          "internalType": "bool",
          "name": "",
          "type": "bool"
        }
      ],
      "stateMutability": "view",
      "type": "function"
    },
    {
      "inputs": [
        {
          "internalType": "uint256",
          "name": "",
          "type": "uint256"
        }
      ],
      "name": "files",
      "outputs": [
        {
          "internalType": "string",
          "name": "ipfsHash",
          "type": "string"
        },
        {
          "internalType": "uint256",
          "name": "createdAt",
          "type": "uint256"
        },
        {
          "internalType": "uint256",
          "name": "price",
          "type": "uint256"
        },
        {
          "internalType": "uint256",
          "name": "maxDownloads",
          "type": "uint256"
        },
        {
          "internalType": "uint256",
          "name": "downloadCount",
          "type": "uint256"
        },
        {
          "internalType": "uint256",
          "name": "expiresAt",
          "type": "uint256"
        },
        {
          "internalType": "bytes32",
          "name": "passwordHash",
          "type": "bytes32"
        },
        {
          "internalType": "address",
          "name": "owner",
          "type": "address"
        },
        {
          "internalType": "bool",
          "name": "isActive",
          "type": "bool"
        },
        {
          "internalType": "bool",
          "name": "hasPassword",
          "type": "bool"
        }
      ],
      "stateMutability": "view",
      "type": "function"
    },
    {
      "inputs": [
        {
          "internalType": "uint256",
          "name": "fileId",
          "type": "uint256"
        }
      ],
      "name": "getAccessInfo",
      "outputs": [
        {
          "internalType": "bool",
          "name": "isAuthorized",
          "type": "bool"
        },
        {
          "internalType": "bool",
          "name": "hasDownloaded",
          "type": "bool"
        }
      ],
      "stateMutability": "view",
      "type": "function"
    },
    {
      "inputs": [],
      "name": "getBalance",
      "outputs": [
        {
          "internalType": "uint256",
          "name": "",
          "type": "uint256"
        }
      ],
      "stateMutability": "view",
      "type": "function"
    },
    {
      "inputs": [
        {
          "internalType": "uint256",
          "name": "fileId",
          "type": "uint256"
        }
      ],
      "name": "getFileExpiry",
      "outputs": [
        {
          "internalType": "uint256",
          "name": "",
          "type": "uint256"
        }
      ],
      "stateMutability": "view",
      "type": "function"
    },
    {
      "inputs": [
        {
          "internalType": "uint256",
          "name": "fileId",
          "type": "uint256"
        }
      ],
      "name": "getFileInfo",
      "outputs": [
        {
          "internalType": "string",
          "name": "ipfsHash",
          "type": "string"
        },
        {
          "internalType": "uint256",
          "name": "createdAt",
          "type": "uint256"
        },
        {
          "internalType": "uint256",
          "name": "price",
          "type": "uint256"
        },
        {
          "internalType": "uint256",
          "name": "maxDownloads",
          "type": "uint256"
        },
        {
          "internalType": "uint256",
          "name": "downloadCount",
          "type": "uint256"
        },
        {
          "internalType": "bool",
          "name": "isActive",
          "type": "bool"
        },
        {
          "internalType": "bool",
          "name": "hasPassword",
          "type": "bool"
        }
      ],
      "stateMutability": "view",
      "type": "function"
    },
    {
      "inputs": [
        {
          "internalType": "uint256",
          "name": "fileId",
          "type": "uint256"
        }
      ],
      "name": "getFileOwner",
      "outputs": [
        {
          "internalType": "address",
          "name": "",
          "type": "address"
        }
      ],
      "stateMutability": "view",
      "type": "function"
    },
    {
      "inputs": [],
      "name": "getMyFiles",
      "outputs": [
        {
          "internalType": "uint256[]",
          "name": "",
          "type": "uint256[]"
        }
      ],
      "stateMutability": "view",
      "type": "function"
    },
    {
      "inputs": [
        {
          "internalType": "uint256",
          "name": "fileId",
          "type": "uint256"
        }
      ],
      "name": "getRemainingDownloads",
      "outputs": [
        {
          "internalType": "uint256",
          "name": "",
          "type": "uint256"
        }
      ],
      "stateMutability": "view",
      "type": "function"
    },
    {
      "inputs": [],
      "name": "getStats",
      "outputs": [
        {
          "internalType": "uint256",
          "name": "_totalFiles",
          "type": "uint256"
        },
        {
          "internalType": "uint256",
          "name": "_totalDownloads",
          "type": "uint256"
        },
        {
          "internalType": "uint256",
          "name": "_totalVolume",
          "type": "uint256"
        },
        {
          "internalType": "uint256",
          "name": "_myFileCount",
          "type": "uint256"
        }
      ],
      "stateMutability": "view",
      "type": "function"
    },
    {
      "inputs": [
        {
          "internalType": "uint256",
          "name": "fileId",
          "type": "uint256"
        }
      ],
      "name": "isFileExpired",
      "outputs": [
        {
          "internalType": "bool",
          "name": "",
          "type": "bool"
        }
      ],
      "stateMutability": "view",
      "type": "function"
    },
    {
      "inputs": [],
      "name": "owner",
      "outputs": [
        {
          "internalType": "address",
          "name": "",
          "type": "address"
        }
      ],
      "stateMutability": "view",
      "type": "function"
    },
    {
      "inputs": [
        {
          "internalType": "uint256",
          "name": "fileId",
          "type": "uint256"
        }
      ],
      "name": "reactivateFile",
      "outputs": [],
      "stateMutability": "nonpayable",
      "type": "function"
    },
    {
      "inputs": [],
      "name": "renounceOwnership",
      "outputs": [],
      "stateMutability": "nonpayable",
      "type": "function"
    },
    {
      "inputs": [
        {
          "internalType": "uint256",
          "name": "fileId",
          "type": "uint256"
        }
      ],
      "name": "requestAccess",
      "outputs": [],
      "stateMutability": "payable",
      "type": "function"
    },
    {
      "inputs": [
        {
          "internalType": "uint256",
          "name": "fileId",
          "type": "uint256"
        },
        {
          "internalType": "address",
          "name": "user",
          "type": "address"
        }
      ],
      "name": "revokeAccess",
      "outputs": [],
      "stateMutability": "nonpayable",
      "type": "function"
    },
    {
      "inputs": [
        {
          "internalType": "address",
          "name": "creator",
          "type": "address"
        }
      ],
      "name": "revokeCreator",
      "outputs": [],
      "stateMutability": "nonpayable",
      "type": "function"
    },
    {
      "inputs": [],
      "name": "totalDownloads",
      "outputs": [
        {
          "internalType": "uint256",
          "name": "",
          "type": "uint256"
        }
      ],
      "stateMutability": "view",
      "type": "function"
    },
    {
      "inputs": [],
      "name": "totalFiles",
      "outputs": [
        {
          "internalType": "uint256",
          "name": "",
          "type": "uint256"
        }
      ],
      "stateMutability": "view",
      "type": "function"
    },
    {
      "inputs": [],
      "name": "totalVolume",
      "outputs": [
        {
          "internalType": "uint256",
          "name": "",
          "type": "uint256"
        }
      ],
      "stateMutability": "view",
      "type": "function"
    },
    {
      "inputs": [
        {
          "internalType": "address",
          "name": "newOwner",
          "type": "address"
        }
      ],
      "name": "transferOwnership",
      "outputs": [],
      "stateMutability": "nonpayable",
      "type": "function"
    },
    {
      "inputs": [
        {
          "internalType": "uint256",
          "name": "fileId",
          "type": "uint256"
        },
        {
          "internalType": "uint256",
          "name": "newPrice",
          "type": "uint256"
        },
        {
          "internalType": "uint256",
          "name": "newMaxDownloads",
          "type": "uint256"
        },
        {
          "internalType": "uint256",
          "name": "newExpiryDays",
          "type": "uint256"
        }
      ],
      "name": "updateFileRules",
      "outputs": [],
      "stateMutability": "nonpayable",
      "type": "function"
    },
    {
      "inputs": [
        {
          "internalType": "string",
          "name": "ipfsHash_",
          "type": "string"
        },
        {
          "internalType": "uint256",
          "name": "price_",
          "type": "uint256"
        },
        {
          "internalType": "uint256",
          "name": "maxDownloads_",
          "type": "uint256"
        },
        {
          "internalType": "uint256",
          "name": "expiryDays_",
          "type": "uint256"
        },
        {
          "internalType": "bytes32",
          "name": "passwordHash_",
          "type": "bytes32"
        }
      ],
      "name": "uploadFile",
      "outputs": [
        {
          "internalType": "uint256",
          "name": "fileId",
          "type": "uint256"
        }
      ],
      "stateMutability": "nonpayable",
      "type": "function"
    },
    {
      "inputs": [
        {
          "internalType": "address",
          "name": "",
          "type": "address"
        },
        {
          "internalType": "uint256",
          "name": "",
          "type": "uint256"
        }
      ],
      "name": "userFiles",
      "outputs": [
        {
          "internalType": "uint256",
          "name": "",
          "type": "uint256"
        }
      ],
      "stateMutability": "view",
      "type": "function"
    },
    {
      "inputs": [
        {
          "internalType": "uint256",
          "name": "fileId",
          "type": "uint256"
        },
        {
          "internalType": "string",
          "name": "password",
          "type": "string"
        }
      ],
      "name": "verifyPassword",
      "outputs": [
        {
          "internalType": "bool",
          "name": "",
          "type": "bool"
        }
      ],
      "stateMutability": "view",
      "type": "function"
    },
    {
      "inputs": [],
      "name": "withdraw",
      "outputs": [],
      "stateMutability": "nonpayable",
      "type": "function"
    }
  ],
  "bytecode": "0x608060405234801561001057600080fd5b50338061003757604051631e4fbdf760e01b81526000600482015260240160405180910390fd5b61004081610084565b5060017f9b779b17422d0df92223018b32b4d1fa46e071723d6817e2486d003becc55f0055336000908152600860205260409020805460ff191660011790556100d4565b600080546001600160a01b038381166001600160a01b0319831681178455604051919092169283917f8be0079c531659141344cd1fd0a4f28419497f9722a3daafe3b4186f6b6457e09190a35050565b611d75806100e36000396000f3fe6080604052600436106101d85760003560e01c806390a4b0df11610102578063d65a995f11610095578063ef79540311610064578063ef795403146105ae578063f2fde38b146105de578063f4c714b4146105fe578063ffb67cf01461063457600080fd5b8063d65a995f1461051b578063d7d560351461053b578063d8625b071461056e578063d9a5ec1b1461058e57600080fd5b8063a5663a9f116100d1578063a5663a9f1461045a578063c0e69af614610495578063c59d4847146104b5578063c875ca03146104fb57600080fd5b806390a4b0df146103e257806390e3df7d1461040457806392cf05571461042457806393df27381461043a57600080fd5b80635f81a57c1161017a57806376ae9acb1161014957806376ae9acb1461035d5780637fdc2cdc1461037d5780638169eef5146103905780638da5cb5b146103b057600080fd5b80635f81a57c146102c757806364df4040146102dd578063715018a614610328578063718f38a61461033d57600080fd5b806331eb16d5116101b657806331eb16d51461025a5780633ccfd60b1461027c57806344c62d9f1461029157806353b8dc53146102a757600080fd5b8063041ebb4a146101dd578063065b51b51461021057806312065fe014610247575b600080fd5b3480156101e957600080fd5b506101fd6101f8366004611774565b610654565b6040519081526020015b60405180910390f35b34801561021c57600080fd5b5061023061022b366004611774565b6106b1565b604080519215158352901515602083015201610207565b34801561025357600080fd5b50476101fd565b34801561026657600080fd5b5061027a610275366004611774565b610729565b005b34801561028857600080fd5b5061027a6107b1565b34801561029d57600080fd5b506101fd60065481565b3480156102b357600080fd5b5061027a6102c2366004611774565b6107f6565b3480156102d357600080fd5b506101fd60075481565b3480156102e957600080fd5b506103186102f83660046117a9565b600460209081526000928352604080842090915290825290205460ff1681565b6040519015158152602001610207565b34801561033457600080fd5b5061027a610878565b34801561034957600080fd5b506101fd6103583660046117d5565b61088c565b34801561036957600080fd5b506101fd610378366004611774565b6108bd565b61027a61038b366004611774565b610950565b34801561039c57600080fd5b506103186103ab366004611774565b610c51565b3480156103bc57600080fd5b506000546001600160a01b03165b6040516001600160a01b039091168152602001610207565b3480156103ee57600080fd5b506103f7610cb0565b60405161020791906117ff565b34801561041057600080fd5b506103ca61041f366004611774565b610d11565b34801561043057600080fd5b506101fd60055481565b34801561044657600080fd5b5061027a610455366004611774565b610d6a565b34801561046657600080fd5b506103186104753660046117a9565b600360209081526000928352604080842090915290825290205460ff1681565b3480156104a157600080fd5b5061027a6104b0366004611843565b610fd2565b3480156104c157600080fd5b5060055460065460075433600090815260026020526040902054604080519485526020850193909352918301526060820152608001610207565b34801561050757600080fd5b5061027a610516366004611865565b610ffb565b34801561052757600080fd5b506103186105363660046118e0565b61107c565b34801561054757600080fd5b5061055b610556366004611774565b611156565b6040516102079796959493929190611972565b34801561057a57600080fd5b5061027a610589366004611843565b61128a565b34801561059a57600080fd5b5061027a6105a93660046117a9565b6112b6565b3480156105ba57600080fd5b506103186105c9366004611843565b60086020526000908152604090205460ff1681565b3480156105ea57600080fd5b5061027a6105f9366004611843565b61134a565b34801561060a57600080fd5b5061061e610619366004611774565b611385565b6040516102079a999897969594939291906119ba565b34801561064057600080fd5b506101fd61064f366004611a21565b61146f565b60008181526001602052604081206007015482906001600160a01b03166106965760405162461bcd60e51b815260040161068d90611a83565b60405180910390fd5b60008381526001602052604090206005015491505b50919050565b600081815260016020526040812060070154819083906001600160a01b03166106ec5760405162461bcd60e51b815260040161068d90611a83565b505050600081815260036020908152604080832033808552908352818420549484526004835281842090845290915290205460ff91821692911690565b60008181526001602052604090206007015481906001600160a01b031633146107645760405162461bcd60e51b815260040161068d90611ab0565b600082815260016020526040808220600701805460ff60a01b1916600160a01b1790555183917f02142b863fb4973a046d80ddbd02049192a36d63655b941ba01228586084b1ba91a25050565b6107b96116ab565b600080546040516001600160a01b03909116914780156108fc02929091818181858888f193505050501580156107f3573d6000803e3d6000fd5b50565b60008181526001602052604090206007015481906001600160a01b031633146108315760405162461bcd60e51b815260040161068d90611ab0565b600082815260016020526040808220600701805460ff60a01b191690555183917f613efd8538c2696d56486f744756fb87a58fea7ce6397de411f074ee4141d1c091a25050565b6108806116ab565b61088a60006116d8565b565b600260205281600052604060002081815481106108a857600080fd5b90600052602060002001600091509150505481565b60008181526001602052604081206007015482906001600160a01b03166108f65760405162461bcd60e51b815260040161068d90611a83565b6000838152600160205260408120600381015490910361091b576000199250506106ab565b80600301548160040154106109345760009250506106ab565b806004015481600301546109489190611aee565b949350505050565b60008181526001602052604090206007015481906001600160a01b03166109895760405162461bcd60e51b815260040161068d90611a83565b6000828152600160205260409020600701548290600160a01b900460ff166109c35760405162461bcd60e51b815260040161068d90611b07565b600083815260016020526040902060050154839015610a2f576000818152600160205260409020600501544210610a2f5760405162461bcd60e51b815260206004820152601060248201526f119a5b19481a185cc8195e1c1a5c995960821b604482015260640161068d565b60008481526001602052604090206003015484908015610aa2576000828152600160205260409020600401548111610aa25760405162461bcd60e51b81526020600482015260166024820152754e6f20646f776e6c6f6164732072656d61696e696e6760501b604482015260640161068d565b610aaa611728565b6000868152600160205260409020600281015415610bd3578060020154341015610b0d5760405162461bcd60e51b8152602060048201526014602482015273125b9cdd59999a58da595b9d081c185e5b595b9d60621b604482015260640161068d565b600781015460028201546040516000926001600160a01b031691908381818185875af1925050503d8060008114610b60576040519150601f19603f3d011682016040523d82523d6000602084013e610b65565b606091505b5050905080610bb65760405162461bcd60e51b815260206004820152601760248201527f5061796d656e74207472616e73666572206661696c6564000000000000000000604482015260640161068d565b816002015460076000828254610bcc9190611b33565b9091555050505b60008781526003602090815260408083203380855290835292819020805460ff191660011790556002840154905190815289917f29f2c84c9cd7186f87de7fc5ca57b017e9eefb2797aea3844e4e0a944f873c49910160405180910390a350610c496001600080516020611d2083398151915255565b505050505050565b60008181526001602052604081206007015482906001600160a01b0316610c8a5760405162461bcd60e51b815260040161068d90611a83565b600083815260016020526040902060050154801580159061094857504210159392505050565b33600090815260026020908152604091829020805483518184028101840190945280845260609392830182828015610d0757602002820191906000526020600020905b815481526020019060010190808311610cf3575b5050505050905090565b60008181526001602052604081206007015482906001600160a01b0316610d4a5760405162461bcd60e51b815260040161068d90611a83565b50506000908152600160205260409020600701546001600160a01b031690565b60008181526001602052604090206007015481906001600160a01b0316610da35760405162461bcd60e51b815260040161068d90611a83565b6000828152600160205260409020600701548290600160a01b900460ff16610ddd5760405162461bcd60e51b815260040161068d90611b07565b600083815260016020526040902060050154839015610e49576000818152600160205260409020600501544210610e495760405162461bcd60e51b815260206004820152601060248201526f119a5b19481a185cc8195e1c1a5c995960821b604482015260640161068d565b60008481526001602052604090206003015484908015610ebc576000828152600160205260409020600401548111610ebc5760405162461bcd60e51b81526020600482015260166024820152754e6f20646f776e6c6f6164732072656d61696e696e6760501b604482015260640161068d565b610ec4611728565b600086815260036020908152604080832033845290915290205460ff16610f225760405162461bcd60e51b81526020600482015260126024820152711058d8d95cdcc81b9bdd0819dc985b9d195960721b604482015260640161068d565b60008681526001602052604081206004810180549192610f4183611b46565b909155505060068054906000610f5683611b46565b90915550506000878152600460209081526040808320338085529252808320805460ff19166001179055600784015490516001600160a01b0391909116928a917f4b42e00faac63cf3a78a1c3bfc9e8c5676520c249549abd920b09bf2b45a73fc9190a450610c496001600080516020611d2083398151915255565b610fda6116ab565b6001600160a01b03166000908152600860205260409020805460ff19169055565b60008481526001602052604090206007015484906001600160a01b031633146110365760405162461bcd60e51b815260040161068d90611ab0565b600085815260016020526040902060028101859055600381018490558215610c49576110658362015180611b5f565b61106f9042611b33565b6005820155505050505050565b60008381526001602052604081206007015484906001600160a01b03166110b55760405162461bcd60e51b815260040161068d90611a83565b6000858152600160205260409020600701548590600160a01b900460ff166110ef5760405162461bcd60e51b815260040161068d90611b07565b60008681526001602052604090206007810154600160a81b900460ff1661111a57600193505061114d565b80600601548686604051602001611132929190611b76565b60405160208183030381529060405280519060200120149350505b50509392505050565b600081815260016020526040812060070154606091908190819081908190819088906001600160a01b031661119d5760405162461bcd60e51b815260040161068d90611a83565b6000898152600160208190526040909120908101546002820154600383015460048401546007850154855486959493929160ff600160a01b8204811692600160a81b909204169087906111ef90611b86565b80601f016020809104026020016040519081016040528092919081815260200182805461121b90611b86565b80156112685780601f1061123d57610100808354040283529160200191611268565b820191906000526020600020905b81548152906001019060200180831161124b57829003601f168201915b5050505050965098509850985098509850985098505050919395979092949650565b6112926116ab565b6001600160a01b03166000908152600860205260409020805460ff19166001179055565b60008281526001602052604090206007015482906001600160a01b031633146112f15760405162461bcd60e51b815260040161068d90611ab0565b60008381526003602090815260408083206001600160a01b0386168085529252808320805460ff1916905551909185917f125883b94692baebecad9f111ed97ffa626523bbbadc6b0ef85ee1b56b9e52d59190a3505050565b6113526116ab565b6001600160a01b03811661137c57604051631e4fbdf760e01b81526000600482015260240161068d565b6107f3816116d8565b6001602052600090815260409020805481906113a090611b86565b80601f01602080910402602001604051908101604052809291908181526020018280546113cc90611b86565b80156114195780601f106113ee57610100808354040283529160200191611419565b820191906000526020600020905b8154815290600101906020018083116113fc57829003601f168201915b505050600184015460028501546003860154600487015460058801546006890154600790990154979894979396509194509290916001600160a01b0381169060ff600160a01b8204811691600160a81b9004168a565b6000856114b35760405162461bcd60e51b815260206004820152601260248201527112541194c81a185cda081c995c5d5a5c995960721b604482015260640161068d565b600580549060006114c383611b46565b91905055905060008084116114d95760006114f0565b6114e68462015180611b5f565b6114f09042611b33565b604080516101606020601f8c01819004028201810190925261014081018a81529293509182918b908b9081908501838280828437600092018290525093855250504260208085019190915260408085018c9052606085018b90526080850184905260a0850187905260c085018990523360e086015260016101008601819052891515610120909601959095528784529390525020815181906115929082611c1d565b50602082810151600183810191909155604080850151600280860191909155606086015160038601556080860151600486015560a0860151600586015560c0860151600686015560e086015160079586018054610100890151610120909901516001600160a01b039093166001600160a81b031990911617600160a01b981515989098029790971760ff60a81b1916600160a81b91151582021790965533600081815291855282822080548086018255908352858320018990558882529290935291829020909201549051919285927f997423fbdac7cd6d52efda5c99b0a8c930c5ad623e8279344bdddb79fc3625dc92611698928e928e928e9260ff91041690611cdd565b60405180910390a3509695505050505050565b6000546001600160a01b0316331461088a5760405163118cdaa760e01b815233600482015260240161068d565b600080546001600160a01b038381166001600160a01b0319831681178455604051919092169283917f8be0079c531659141344cd1fd0a4f28419497f9722a3daafe3b4186f6b6457e09190a35050565b611730611744565b6002600080516020611d2083398151915255565b600080516020611d208339815191525460020361088a57604051633ee5aeb560e01b815260040160405180910390fd5b60006020828403121561178657600080fd5b5035919050565b80356001600160a01b03811681146117a457600080fd5b919050565b600080604083850312156117bc57600080fd5b823591506117cc6020840161178d565b90509250929050565b600080604083850312156117e857600080fd5b6117f18361178d565b946020939093013593505050565b6020808252825182820181905260009190848201906040850190845b818110156118375783518352928401929184019160010161181b565b50909695505050505050565b60006020828403121561185557600080fd5b61185e8261178d565b9392505050565b6000806000806080858703121561187b57600080fd5b5050823594602084013594506040840135936060013592509050565b60008083601f8401126118a957600080fd5b50813567ffffffffffffffff8111156118c157600080fd5b6020830191508360208285010111156118d957600080fd5b9250929050565b6000806000604084860312156118f557600080fd5b83359250602084013567ffffffffffffffff81111561191357600080fd5b61191f86828701611897565b9497909650939450505050565b6000815180845260005b8181101561195257602081850181015186830182015201611936565b506000602082860101526020601f19601f83011685010191505092915050565b60e08152600061198560e083018a61192c565b602083019890985250604081019590955260608501939093526080840191909152151560a0830152151560c090910152919050565b60006101408083526119ce8184018e61192c565b602084019c909c52505060408101989098526060880196909652608087019490945260a086019290925260c08501526001600160a01b031660e08401521515610100830152151561012090910152919050565b60008060008060008060a08789031215611a3a57600080fd5b863567ffffffffffffffff811115611a5157600080fd5b611a5d89828a01611897565b909a90995060208901359860408101359850606081013597506080013595509350505050565b602080825260139082015272119a5b1948191bd95cc81b9bdd08195e1a5cdd606a1b604082015260600190565b6020808252600e908201526d2737ba103334b6329037bbb732b960911b604082015260600190565b634e487b7160e01b600052601160045260246000fd5b81810381811115611b0157611b01611ad8565b92915050565b60208082526012908201527146696c65206973206e6f742061637469766560701b604082015260600190565b80820180821115611b0157611b01611ad8565b600060018201611b5857611b58611ad8565b5060010190565b8082028115828204841417611b0157611b01611ad8565b8183823760009101908152919050565b600181811c90821680611b9a57607f821691505b6020821081036106ab57634e487b7160e01b600052602260045260246000fd5b634e487b7160e01b600052604160045260246000fd5b601f821115611c18576000816000526020600020601f850160051c81016020861015611bf95750805b601f850160051c820191505b81811015610c4957828155600101611c05565b505050565b815167ffffffffffffffff811115611c3757611c37611bba565b611c4b81611c458454611b86565b84611bd0565b602080601f831160018114611c805760008415611c685750858301515b600019600386901b1c1916600185901b178555610c49565b600085815260208120601f198616915b82811015611caf57888601518255948401946001909101908401611c90565b5085821015611ccd5787850151600019600388901b60f8161c191681555b5050505050600190811b01905550565b606081528360608201528385608083013760006080858301015260006080601f19601f870116830101905083602083015282151560408301529594505050505056fe9b779b17422d0df92223018b32b4d1fa46e071723d6817e2486d003becc55f00a26469706673582212204d1bc90833df6f3bc131dc7bcb6fd149dc1ae8f39478c8d4701064b307d94ee264736f6c63430008180033",
  "linkReferences": {},
  "deployedLinkReferences": {}
}