{
  "_format": "hh-sol-artifact-1",
  "contractName": "FhenixDropBox",
  "sourceName": "contracts/FhenixDropBox.sol",
  "abi": [
    {
      "inputs": [],
      "stateMutability": "nonpayable",
      "type": "constructor"
    },
    {
      "inputs": [
        {
          "internalType": "address",
          "name": "owner",
          "type": "address"
        }
      ],
      "name": "OwnableInvalidOwner",
      "type": "error"
    },
    {
      "inputs": [
        {
          "internalType": "address",
          "name": "account",
          "type": "address"
        }
      ],
      "name": "OwnableUnauthorizedAccount",
      "type": "error"
    },
    {
      "inputs": [],
      "name": "ReentrancyGuardReentrantCall",
      "type": "error"
    },
    {
      "anonymous": false,
      "inputs": [
        {
          "indexed": true,
          "internalType": "uint256",
          "name": "fileId",
          "type": "uint256"
        },
        {
          "indexed": true,
          "internalType": "address",
          "name": "user",
          "type": "address"
        }
      ],
      "name": "AccessRevoked",
      "type": "event"
    },
    {
      "anonymous": false,
      "inputs": [
        {
          "indexed": true,
          "internalType": "uint256",
          "name": "fileId",
          "type": "uint256"
        },
        {
          "indexed": true,
          "internalType": "address",
          "name": "requester",
          "type": "address"
        },
        {
          "indexed": false,
          "internalType": "uint256",
          "name": "price",
          "type": "uint256"
        }
      ],
      "name": "FileAccessed",
      "type": "event"
    },
    {
      "anonymous": false,
      "inputs": [
        {
          "indexed": true,
          "internalType": "uint256",
          "name": "fileId",
          "type": "uint256"
        }
      ],
      "name": "FileDeactivated",
      "type": "event"
    },
    {
      "anonymous": false,
      "inputs": [
        {
          "indexed": true,
          "internalType": "uint256",
          "name": "fileId",
          "type": "uint256"
        },
        {
          "indexed": true,
          "internalType": "address",
          "name": "downloader",
          "type": "address"
        },
        {
          "indexed": true,
          "internalType": "address",
          "name": "owner",
          "type": "address"
        }
      ],
      "name": "FileDownloaded",
      "type": "event"
    },
    {
      "anonymous": false,
      "inputs": [
        {
          "indexed": true,
          "internalType": "uint256",
          "name": "fileId",
          "type": "uint256"
        }
      ],
      "name": "FileReactivated",
      "type": "event"
    },
    {
      "anonymous": false,
      "inputs": [
        {
          "indexed": true,
          "internalType": "uint256",
          "name": "fileId",
          "type": "uint256"
        },
        {
          "indexed": true,
          "internalType": "address",
          "name": "owner",
          "type": "address"
        },
        {
          "indexed": false,
          "internalType": "string",
          "name": "ipfsHash",
          "type": "string"
        },
        {
          "indexed": false,
          "internalType": "uint256",
          "name": "price",
          "type": "uint256"
        },
        {
          "indexed": false,
          "internalType": "bool",
          "name": "hasPassword",
          "type": "bool"
        },
        {
          "indexed": false,
          "internalType": "bool",
          "name": "contentEncrypted",
          "type": "bool"
        }
      ],
      "name": "FileUploaded",
      "type": "event"
    },
    {
      "anonymous": false,
      "inputs": [
        {
          "indexed": true,
          "internalType": "address",
          "name": "previousOwner",
          "type": "address"
        },
        {
          "indexed": true,
          "internalType": "address",
          "name": "newOwner",
          "type": "address"
        }
      ],
      "name": "OwnershipTransferred",
      "type": "event"
    },
    {
      "inputs": [],
      "name": "USDC_TOKEN",
      "outputs": [
        {
          "internalType": "address",
          "name": "",
          "type": "address"
        }
      ],
      "stateMutability": "view",
      "type": "function"
    },
    {
      "inputs": [
        {
          "internalType": "uint256",
          "name": "",
          "type": "uint256"
        },
        {
          "internalType": "address",
          "name": "",
          "type": "address"
        }
      ],
      "name": "authorizedUsers",
      "outputs": [
        {
          "internalType": "bool",
          "name": "",
          "type": "bool"
        }
      ],
      "stateMutability": "view",
      "type": "function"
    },
    {
      "inputs": [
        {
          "internalType": "uint256",
          "name": "fileId",
          "type": "uint256"
        }
      ],
      "name": "deactivateFile",
      "outputs": [],
      "stateMutability": "nonpayable",
      "type": "function"
    },
    {
      "inputs": [
        {
          "internalType": "uint256",
          "name": "fileId",
          "type": "uint256"
        }
      ],
      "name": "downloadFile",
      "outputs": [],
      "stateMutability": "nonpayable",
      "type": "function"
    },
    {
      "inputs": [
        {
          "internalType": "uint256",
          "name": "",
          "type": "uint256"
        },
        {
          "internalType": "address",
          "name": "",
          "type": "address"
        }
      ],
      "name": "downloadHistory",
      "outputs": [
        {
          "internalType": "bool",
          "name": "",
          "type": "bool"
        }
      ],
      "stateMutability": "view",
      "type": "function"
    },
    {
      "inputs": [
        {
          "internalType": "uint256",
          "name": "",
          "type": "uint256"
        }
      ],
      "name": "files",
      "outputs": [
        {
          "internalType": "string",
          "name": "ipfsHash",
          "type": "string"
        },
        {
          "internalType": "uint256",
          "name": "createdAt",
          "type": "uint256"
        },
        {
          "internalType": "uint256",
          "name": "price",
          "type": "uint256"
        },
        {
          "internalType": "uint256",
          "name": "maxDownloads",
          "type": "uint256"
        },
        {
          "internalType": "uint256",
          "name": "downloadCount",
          "type": "uint256"
        },
        {
          "internalType": "uint256",
          "name": "expiresAt",
          "type": "uint256"
        },
        {
          "internalType": "bytes32",
          "name": "accessCodeHash",
          "type": "bytes32"
        },
        {
          "internalType": "address",
          "name": "owner",
          "type": "address"
        },
        {
          "internalType": "bool",
          "name": "isActive",
          "type": "bool"
        },
        {
          "internalType": "bool",
          "name": "hasPassword",
          "type": "bool"
        },
        {
          "internalType": "bool",
          "name": "contentEncrypted",
          "type": "bool"
        },
        {
          "internalType": "bytes32",
          "name": "encryptionKeyHash",
          "type": "bytes32"
        }
      ],
      "stateMutability": "view",
      "type": "function"
    },
    {
      "inputs": [
        {
          "internalType": "uint256",
          "name": "fileId",
          "type": "uint256"
        }
      ],
      "name": "getAccessInfo",
      "outputs": [
        {
          "internalType": "bool",
          "name": "isAuthorized",
          "type": "bool"
        },
        {
          "internalType": "bool",
          "name": "hasDownloaded",
          "type": "bool"
        }
      ],
      "stateMutability": "view",
      "type": "function"
    },
    {
      "inputs": [],
      "name": "getBalance",
      "outputs": [
        {
          "internalType": "uint256",
          "name": "",
          "type": "uint256"
        }
      ],
      "stateMutability": "view",
      "type": "function"
    },
    {
      "inputs": [
        {
          "internalType": "uint256",
          "name": "fileId",
          "type": "uint256"
        }
      ],
      "name": "getEncryptionInfo",
      "outputs": [
        {
          "internalType": "bool",
          "name": "contentEncrypted",
          "type": "bool"
        },
        {
          "internalType": "bool",
          "name": "isOwnerOrAuthorized",
          "type": "bool"
        }
      ],
      "stateMutability": "view",
      "type": "function"
    },
    {
      "inputs": [
        {
          "internalType": "uint256",
          "name": "fileId",
          "type": "uint256"
        }
      ],
      "name": "getFileExpiry",
      "outputs": [
        {
          "internalType": "uint256",
          "name": "",
          "type": "uint256"
        }
      ],
      "stateMutability": "view",
      "type": "function"
    },
    {
      "inputs": [
        {
          "internalType": "uint256",
          "name": "fileId",
          "type": "uint256"
        }
      ],
      "name": "getFileInfo",
      "outputs": [
        {
          "internalType": "string",
          "name": "ipfsHash",
          "type": "string"
        },
        {
          "internalType": "uint256",
          "name": "createdAt",
          "type": "uint256"
        },
        {
          "internalType": "uint256",
          "name": "price",
          "type": "uint256"
        },
        {
          "internalType": "uint256",
          "name": "maxDownloads",
          "type": "uint256"
        },
        {
          "internalType": "uint256",
          "name": "downloadCount",
          "type": "uint256"
        },
        {
          "internalType": "bool",
          "name": "isActive",
          "type": "bool"
        },
        {
          "internalType": "bool",
          "name": "hasPassword",
          "type": "bool"
        },
        {
          "internalType": "bool",
          "name": "contentEncrypted",
          "type": "bool"
        }
      ],
      "stateMutability": "view",
      "type": "function"
    },
    {
      "inputs": [
        {
          "internalType": "uint256",
          "name": "fileId",
          "type": "uint256"
        }
      ],
      "name": "getFileOwner",
      "outputs": [
        {
          "internalType": "address",
          "name": "",
          "type": "address"
        }
      ],
      "stateMutability": "view",
      "type": "function"
    },
    {
      "inputs": [],
      "name": "getLatestFileId",
      "outputs": [
        {
          "internalType": "uint256",
          "name": "",
          "type": "uint256"
        }
      ],
      "stateMutability": "view",
      "type": "function"
    },
    {
      "inputs": [],
      "name": "getMyFiles",
      "outputs": [
        {
          "internalType": "uint256[]",
          "name": "",
          "type": "uint256[]"
        }
      ],
      "stateMutability": "view",
      "type": "function"
    },
    {
      "inputs": [
        {
          "internalType": "uint256",
          "name": "fileId",
          "type": "uint256"
        }
      ],
      "name": "getRemainingDownloads",
      "outputs": [
        {
          "internalType": "uint256",
          "name": "",
          "type": "uint256"
        }
      ],
      "stateMutability": "view",
      "type": "function"
    },
    {
      "inputs": [],
      "name": "getStats",
      "outputs": [
        {
          "internalType": "uint256",
          "name": "_totalFiles",
          "type": "uint256"
        },
        {
          "internalType": "uint256",
          "name": "_totalDownloads",
          "type": "uint256"
        },
        {
          "internalType": "uint256",
          "name": "_totalVolume",
          "type": "uint256"
        },
        {
          "internalType": "uint256",
          "name": "_myFileCount",
          "type": "uint256"
        }
      ],
      "stateMutability": "view",
      "type": "function"
    },
    {
      "inputs": [
        {
          "internalType": "uint256",
          "name": "fileId",
          "type": "uint256"
        }
      ],
      "name": "isFileExpired",
      "outputs": [
        {
          "internalType": "bool",
          "name": "",
          "type": "bool"
        }
      ],
      "stateMutability": "view",
      "type": "function"
    },
    {
      "inputs": [],
      "name": "owner",
      "outputs": [
        {
          "internalType": "address",
          "name": "",
          "type": "address"
        }
      ],
      "stateMutability": "view",
      "type": "function"
    },
    {
      "inputs": [
        {
          "internalType": "uint256",
          "name": "fileId",
          "type": "uint256"
        }
      ],
      "name": "reactivateFile",
      "outputs": [],
      "stateMutability": "nonpayable",
      "type": "function"
    },
    {
      "inputs": [],
      "name": "renounceOwnership",
      "outputs": [],
      "stateMutability": "nonpayable",
      "type": "function"
    },
    {
      "inputs": [
        {
          "internalType": "uint256",
          "name": "fileId",
          "type": "uint256"
        },
        {
          "internalType": "bytes32",
          "name": "accessCode_",
          "type": "bytes32"
        }
      ],
      "name": "requestAccess",
      "outputs": [],
      "stateMutability": "payable",
      "type": "function"
    },
    {
      "inputs": [
        {
          "internalType": "uint256",
          "name": "fileId",
          "type": "uint256"
        },
        {
          "internalType": "bytes32",
          "name": "accessCode_",
          "type": "bytes32"
        },
        {
          "internalType": "uint256",
          "name": "amount_",
          "type": "uint256"
        }
      ],
      "name": "requestAccessERC20",
      "outputs": [],
      "stateMutability": "nonpayable",
      "type": "function"
    },
    {
      "inputs": [
        {
          "internalType": "uint256",
          "name": "fileId",
          "type": "uint256"
        },
        {
          "internalType": "address",
          "name": "user",
          "type": "address"
        }
      ],
      "name": "revokeAccess",
      "outputs": [],
      "stateMutability": "nonpayable",
      "type": "function"
    },
    {
      "inputs": [],
      "name": "totalDownloads",
      "outputs": [
        {
          "internalType": "uint256",
          "name": "",
          "type": "uint256"
        }
      ],
      "stateMutability": "view",
      "type": "function"
    },
    {
      "inputs": [],
      "name": "totalFiles",
      "outputs": [
        {
          "internalType": "uint256",
          "name": "",
          "type": "uint256"
        }
      ],
      "stateMutability": "view",
      "type": "function"
    },
    {
      "inputs": [],
      "name": "totalVolume",
      "outputs": [
        {
          "internalType": "uint256",
          "name": "",
          "type": "uint256"
        }
      ],
      "stateMutability": "view",
      "type": "function"
    },
    {
      "inputs": [
        {
          "internalType": "address",
          "name": "newOwner",
          "type": "address"
        }
      ],
      "name": "transferOwnership",
      "outputs": [],
      "stateMutability": "nonpayable",
      "type": "function"
    },
    {
      "inputs": [
        {
          "internalType": "uint256",
          "name": "fileId",
          "type": "uint256"
        },
        {
          "internalType": "uint256",
          "name": "newPrice",
          "type": "uint256"
        },
        {
          "internalType": "uint256",
          "name": "newMaxDownloads",
          "type": "uint256"
        },
        {
          "internalType": "uint256",
          "name": "newExpiryDays",
          "type": "uint256"
        },
        {
          "internalType": "bytes32",
          "name": "newAccessCodeHash",
          "type": "bytes32"
        }
      ],
      "name": "updateFileRules",
      "outputs": [],
      "stateMutability": "nonpayable",
      "type": "function"
    },
    {
      "inputs": [
        {
          "internalType": "string",
          "name": "ipfsHash_",
          "type": "string"
        },
        {
          "internalType": "uint256",
          "name": "price_",
          "type": "uint256"
        },
        {
          "internalType": "uint256",
          "name": "maxDownloads_",
          "type": "uint256"
        },
        {
          "internalType": "uint256",
          "name": "expiryDays_",
          "type": "uint256"
        },
        {
          "internalType": "bytes32",
          "name": "accessCodeHash_",
          "type": "bytes32"
        },
        {
          "internalType": "bool",
          "name": "contentEncrypted_",
          "type": "bool"
        },
        {
          "internalType": "bytes32",
          "name": "encryptionKeyHash_",
          "type": "bytes32"
        }
      ],
      "name": "uploadFile",
      "outputs": [
        {
          "internalType": "uint256",
          "name": "fileId",
          "type": "uint256"
        }
      ],
      "stateMutability": "nonpayable",
      "type": "function"
    },
    {
      "inputs": [
        {
          "internalType": "address",
          "name": "",
          "type": "address"
        },
        {
          "internalType": "uint256",
          "name": "",
          "type": "uint256"
        }
      ],
      "name": "userFiles",
      "outputs": [
        {
          "internalType": "uint256",
          "name": "",
          "type": "uint256"
        }
      ],
      "stateMutability": "view",
      "type": "function"
    },
    {
      "inputs": [],
      "name": "withdraw",
      "outputs": [],
      "stateMutability": "nonpayable",
      "type": "function"
    },
    {
      "inputs": [
        {
          "internalType": "address",
          "name": "token",
          "type": "address"
        }
      ],
      "name": "withdrawERC20",
      "outputs": [],
      "stateMutability": "nonpayable",
      "type": "function"
    }
  ],
  "bytecode": "0x608060405234801561001057600080fd5b50338061003757604051631e4fbdf760e01b81526000600482015260240160405180910390fd5b6100408161006a565b5060017f9b779b17422d0df92223018b32b4d1fa46e071723d6817e2486d003becc55f00556100ba565b600080546001600160a01b038381166001600160a01b0319831681178455604051919092169283917f8be0079c531659141344cd1fd0a4f28419497f9722a3daafe3b4186f6b6457e09190a35050565b612413806100c96000396000f3fe6080604052600436106101e35760003560e01c806390a4b0df11610102578063d7d5603511610095578063f4c714b411610064578063f4c714b4146105cf578063f4f3b20014610607578063f795430e14610627578063fa5692741461064757600080fd5b8063d7d5603514610546578063d9a5ec1b1461057a578063e9816c1d1461059a578063f2fde38b146105af57600080fd5b8063a5663a9f116100d1578063a5663a9f14610485578063ab05eb96146104c0578063c59d4847146104e0578063cd6493171461052657600080fd5b806390a4b0df1461040d57806390e3df7d1461042f57806392cf05571461044f57806393df27381461046557600080fd5b806353b8dc531161017a578063718f38a611610149578063718f38a61461037b57806376ae9acb1461039b5780638169eef5146103bb5780638da5cb5b146103db57600080fd5b806353b8dc53146102e55780635f81a57c1461030557806364df40401461031b578063715018a61461036657600080fd5b806331eb16d5116101b657806331eb16d51461028757806339f92dd7146102a75780633ccfd60b146102ba57806344c62d9f146102cf57600080fd5b8063041ebb4a146101e8578063065b51b51461021b5780630d9fd9801461025257806312065fe014610274575b600080fd5b3480156101f457600080fd5b50610208610203366004611d35565b61066f565b6040519081526020015b60405180910390f35b34801561022757600080fd5b5061023b610236366004611d35565b6106cc565b604080519215158352901515602083015201610212565b34801561025e57600080fd5b5061027261026d366004611d4e565b610744565b005b34801561028057600080fd5b5047610208565b34801561029357600080fd5b506102726102a2366004611d35565b6107ea565b6102726102b5366004611d89565b610872565b3480156102c657600080fd5b50610272610b7c565b3480156102db57600080fd5b5061020860065481565b3480156102f157600080fd5b50610272610300366004611d35565b610bc1565b34801561031157600080fd5b5061020860075481565b34801561032757600080fd5b50610356610336366004611dc7565b600460209081526000928352604080842090915290825290205460ff1681565b6040519015158152602001610212565b34801561037257600080fd5b50610272610c43565b34801561038757600080fd5b50610208610396366004611df3565b610c57565b3480156103a757600080fd5b506102086103b6366004611d35565b610c88565b3480156103c757600080fd5b506103566103d6366004611d35565b610d1b565b3480156103e757600080fd5b506000546001600160a01b03165b6040516001600160a01b039091168152602001610212565b34801561041957600080fd5b50610422610d7a565b6040516102129190611e1d565b34801561043b57600080fd5b506103f561044a366004611d35565b610ddb565b34801561045b57600080fd5b5061020860055481565b34801561047157600080fd5b50610272610480366004611d35565b610e34565b34801561049157600080fd5b506103566104a0366004611dc7565b600360209081526000928352604080842090915290825290205460ff1681565b3480156104cc57600080fd5b506102086104db366004611e7a565b611058565b3480156104ec57600080fd5b5060055460065460075433600090815260026020526040902054604080519485526020850193909352918301526060820152608001610212565b34801561053257600080fd5b5061023b610541366004611d35565b61136f565b34801561055257600080fd5b50610566610561366004611d35565b611410565b604051610212989796959493929190611f6f565b34801561058657600080fd5b50610272610595366004611dc7565b611553565b3480156105a657600080fd5b506102086115e7565b3480156105bb57600080fd5b506102726105ca366004611fc0565b6116b1565b3480156105db57600080fd5b506105ef6105ea366004611d35565b6116ec565b6040516102129c9b9a99989796959493929190611fe2565b34801561061357600080fd5b50610272610622366004611fc0565b6117e9565b34801561063357600080fd5b5061027261064236600461205a565b611932565b34801561065357600080fd5b506103f5731adf1adf1adf1adf1adf1adf1adf1adf1adf1ad081565b60008181526001602052604081206007015482906001600160a01b03166106b15760405162461bcd60e51b81526004016106a890612086565b60405180910390fd5b60008381526001602052604090206005015491505b50919050565b600081815260016020526040812060070154819083906001600160a01b03166107075760405162461bcd60e51b81526004016106a890612086565b505050600081815260036020908152604080832033808552908352818420549484526004835281842090845290915290205460ff91821692911690565b60008581526001602052604090206007015485906001600160a01b0316331461077f5760405162461bcd60e51b81526004016106a8906120b3565b6000868152600160205260409020600281018690556003810185905583156107be576107ae84620151806120f1565b6107b8904261210e565b60058201555b82156107e1576006810183905560078101805460ff60a81b1916600160a81b1790555b50505050505050565b60008181526001602052604090206007015481906001600160a01b031633146108255760405162461bcd60e51b81526004016106a8906120b3565b600082815260016020526040808220600701805460ff60a01b1916600160a01b1790555183917f02142b863fb4973a046d80ddbd02049192a36d63655b941ba01228586084b1ba91a25050565b60008281526001602052604090206007015482906001600160a01b03166108ab5760405162461bcd60e51b81526004016106a890612086565b6000838152600160205260409020600701548390600160a01b900460ff166108e55760405162461bcd60e51b81526004016106a890612121565b60008481526001602052604090206005015484901561092e57600081815260016020526040902060050154421061092e5760405162461bcd60e51b81526004016106a89061214d565b600085815260016020526040902060030154859080156109785760008281526001602052604090206004015481116109785760405162461bcd60e51b81526004016106a890612177565b610980611c6c565b60008781526001602052604090206007810154600160a81b900460ff16156109eb57868160060154146109eb5760405162461bcd60e51b8152602060048201526013602482015272496e76616c69642061636365737320636f646560681b60448201526064016106a8565b600281015415610b06578060020154341015610a405760405162461bcd60e51b8152602060048201526014602482015273125b9cdd59999a58da595b9d081c185e5b595b9d60621b60448201526064016106a8565b600781015460028201546040516000926001600160a01b031691908381818185875af1925050503d8060008114610a93576040519150601f19603f3d011682016040523d82523d6000602084013e610a98565b606091505b5050905080610ae95760405162461bcd60e51b815260206004820152601760248201527f5061796d656e74207472616e73666572206661696c656400000000000000000060448201526064016106a8565b816002015460076000828254610aff919061210e565b9091555050505b60008881526003602090815260408083203380855290835292819020805460ff19166001179055600284015490519081528a917f29f2c84c9cd7186f87de7fc5ca57b017e9eefb2797aea3844e4e0a944f873c49910160405180910390a3506107e160016000805160206123be83398151915255565b610b84611c88565b600080546040516001600160a01b03909116914780156108fc02929091818181858888f19350505050158015610bbe573d6000803e3d6000fd5b50565b60008181526001602052604090206007015481906001600160a01b03163314610bfc5760405162461bcd60e51b81526004016106a8906120b3565b600082815260016020526040808220600701805460ff60a01b191690555183917f613efd8538c2696d56486f744756fb87a58fea7ce6397de411f074ee4141d1c091a25050565b610c4b611c88565b610c556000611cb5565b565b60026020528160005260406000208181548110610c7357600080fd5b90600052602060002001600091509150505481565b60008181526001602052604081206007015482906001600160a01b0316610cc15760405162461bcd60e51b81526004016106a890612086565b60008381526001602052604081206003810154909103610ce6576000199250506106c6565b8060030154816004015410610cff5760009250506106c6565b80600401548160030154610d1391906121a7565b949350505050565b60008181526001602052604081206007015482906001600160a01b0316610d545760405162461bcd60e51b81526004016106a890612086565b6000838152600160205260409020600501548015801590610d1357504210159392505050565b33600090815260026020908152604091829020805483518184028101840190945280845260609392830182828015610dd157602002820191906000526020600020905b815481526020019060010190808311610dbd575b5050505050905090565b60008181526001602052604081206007015482906001600160a01b0316610e145760405162461bcd60e51b81526004016106a890612086565b50506000908152600160205260409020600701546001600160a01b031690565b60008181526001602052604090206007015481906001600160a01b0316610e6d5760405162461bcd60e51b81526004016106a890612086565b6000828152600160205260409020600701548290600160a01b900460ff16610ea75760405162461bcd60e51b81526004016106a890612121565b600083815260016020526040902060050154839015610ef0576000818152600160205260409020600501544210610ef05760405162461bcd60e51b81526004016106a89061214d565b60008481526001602052604090206003015484908015610f3a576000828152600160205260409020600401548111610f3a5760405162461bcd60e51b81526004016106a890612177565b610f42611c6c565b600086815260036020908152604080832033845290915290205460ff16610fa05760405162461bcd60e51b81526020600482015260126024820152711058d8d95cdcc81b9bdd0819dc985b9d195960721b60448201526064016106a8565b60008681526001602052604081206004810180549192610fbf836121ba565b909155505060068054906000610fd4836121ba565b90915550506000878152600460209081526040808320338085529252808320805460ff19166001179055600784015490516001600160a01b0391909116928a917f4b42e00faac63cf3a78a1c3bfc9e8c5676520c249549abd920b09bf2b45a73fc9190a45061105060016000805160206123be83398151915255565b505050505050565b60008761109c5760405162461bcd60e51b815260206004820152601260248201527112541194c81a185cda081c995c5d5a5c995960721b60448201526064016106a8565b64e8d4a5100087106110e15760405162461bcd60e51b815260206004820152600e60248201526d0a0e4d2c6ca40e8dede40d0d2ced60931b60448201526064016106a8565b600580549060006110f1836121ba565b919050559050600080861161110757600061111e565b61111486620151806120f1565b61111e904261210e565b604080516101a06020601f8e01819004028201810190925261018081018c81529293509182918d908d9081908501838280828437600092018290525093855250504260208085019190915260408085018e9052606085018d90526080850184905260a0850187905260c085018b90523360e0860152600161010086018190528b15156101208701528a15156101408701526101609095018990528784529390525020815181906111ce908261226a565b506020820151816001015560408201518160020155606082015181600301556080820151816004015560a0820151816005015560c0820151816006015560e08201518160070160006101000a8154816001600160a01b0302191690836001600160a01b031602179055506101008201518160070160146101000a81548160ff0219169083151502179055506101208201518160070160156101000a81548160ff0219169083151502179055506101408201518160070160166101000a81548160ff021916908315150217905550610160820151816008015590505060026000336001600160a01b03166001600160a01b03168152602001908152602001600020829080600181540180825580915050600190039060005260206000200160009091909190915055336001600160a01b0316827fe0062e8615b96e0ca315f565fb200229f3bcf07ca707cd6f0788ed1adc72d9ce8c8c8c6001600089815260200190815260200160002060070160159054906101000a900460ff168a60405161135a95949392919061232a565b60405180910390a35098975050505050505050565b600081815260016020526040812060070154819083906001600160a01b03166113aa5760405162461bcd60e51b81526004016106a890612086565b600084815260036020908152604080832033845290915281205460ff16806113eb57506000858152600160205260409020600701546001600160a01b031633145b60009586526001602052604090952060070154600160b01b900460ff16959350505050565b6000818152600160205260408120600701546060919081908190819081908190819089906001600160a01b03166114595760405162461bcd60e51b81526004016106a890612086565b60008a8152600160208190526040909120908101546002820154600383015460048401546007850154855486959493929160ff600160a01b8204811692600160a81b8304821692600160b01b90049091169088906114b6906121e9565b80601f01602080910402602001604051908101604052809291908181526020018280546114e2906121e9565b801561152f5780601f106115045761010080835404028352916020019161152f565b820191906000526020600020905b81548152906001019060200180831161151257829003601f168201915b50505050509750995099509950995099509950995099505050919395975091939597565b60008281526001602052604090206007015482906001600160a01b0316331461158e5760405162461bcd60e51b81526004016106a8906120b3565b60008381526003602090815260408083206001600160a01b0386168085529252808320805460ff1916905551909185917f125883b94692baebecad9f111ed97ffa626523bbbadc6b0ef85ee1b56b9e52d59190a3505050565b3360009081526002602090815260408083208054825181850281018501909352808352849383018282801561163b57602002820191906000526020600020905b815481526020019060010190808311611627575b5050505050905060008151116116845760405162461bcd60e51b815260206004820152600e60248201526d139bc8199a5b195cc8199bdd5b9960921b60448201526064016106a8565b806001825161169391906121a7565b815181106116a3576116a3612371565b602002602001015191505090565b6116b9611c88565b6001600160a01b0381166116e357604051631e4fbdf760e01b8152600060048201526024016106a8565b610bbe81611cb5565b600160205260009081526040902080548190611707906121e9565b80601f0160208091040260200160405190810160405280929190818152602001828054611733906121e9565b80156117805780601f1061175557610100808354040283529160200191611780565b820191906000526020600020905b81548152906001019060200180831161176357829003601f168201915b50505060018401546002850154600386015460048701546005880154600689015460078a01546008909a015498999598949750929550909390926001600160a01b0382169160ff600160a01b8204811692600160a81b8304821692600160b01b9004909116908c565b6117f1611c88565b6040516370a0823160e01b81523060048201526000906001600160a01b038316906370a0823190602401602060405180830381865afa158015611838573d6000803e3d6000fd5b505050506040513d601f19601f8201168201806040525081019061185c9190612387565b9050816001600160a01b031663a9059cbb61187f6000546001600160a01b031690565b6040516001600160e01b031960e084901b1681526001600160a01b039091166004820152602481018490526044016020604051808303816000875af11580156118cc573d6000803e3d6000fd5b505050506040513d601f19601f820116820180604052508101906118f091906123a0565b61192e5760405162461bcd60e51b815260206004820152600f60248201526e151c985b9cd9995c8819985a5b1959608a1b60448201526064016106a8565b5050565b60008381526001602052604090206007015483906001600160a01b031661196b5760405162461bcd60e51b81526004016106a890612086565b6000848152600160205260409020600701548490600160a01b900460ff166119a55760405162461bcd60e51b81526004016106a890612121565b6000858152600160205260409020600501548590156119ee5760008181526001602052604090206005015442106119ee5760405162461bcd60e51b81526004016106a89061214d565b60008681526001602052604090206003015486908015611a38576000828152600160205260409020600401548111611a385760405162461bcd60e51b81526004016106a890612177565b611a40611c6c565b60008881526001602052604090206007810154600160a81b900460ff1615611aab5787816006015414611aab5760405162461bcd60e51b8152602060048201526013602482015272496e76616c69642061636365737320636f646560681b60448201526064016106a8565b600281015415611bec578060020154871015611b005760405162461bcd60e51b8152602060048201526014602482015273125b9cdd59999a58da595b9d081c185e5b595b9d60621b60448201526064016106a8565b60078101546040516323b872dd60e01b81523360048201526001600160a01b03909116602482015260448101889052731adf1adf1adf1adf1adf1adf1adf1adf1adf1ad0906323b872dd906064016020604051808303816000875af1158015611b6d573d6000803e3d6000fd5b505050506040513d601f19601f82011682018060405250810190611b9191906123a0565b611bd45760405162461bcd60e51b81526020600482015260146024820152731554d110c81d1c985b9cd9995c8819985a5b195960621b60448201526064016106a8565b8660076000828254611be6919061210e565b90915550505b60008981526003602090815260408083203380855290835292819020805460ff19166001179055600284015490519081528b917f29f2c84c9cd7186f87de7fc5ca57b017e9eefb2797aea3844e4e0a944f873c49910160405180910390a350611c6260016000805160206123be83398151915255565b5050505050505050565b611c74611d05565b60026000805160206123be83398151915255565b6000546001600160a01b03163314610c555760405163118cdaa760e01b81523360048201526024016106a8565b600080546001600160a01b038381166001600160a01b0319831681178455604051919092169283917f8be0079c531659141344cd1fd0a4f28419497f9722a3daafe3b4186f6b6457e09190a35050565b6000805160206123be83398151915254600203610c5557604051633ee5aeb560e01b815260040160405180910390fd5b600060208284031215611d4757600080fd5b5035919050565b600080600080600060a08688031215611d6657600080fd5b505083359560208501359550604085013594606081013594506080013592509050565b60008060408385031215611d9c57600080fd5b50508035926020909101359150565b80356001600160a01b0381168114611dc257600080fd5b919050565b60008060408385031215611dda57600080fd5b82359150611dea60208401611dab565b90509250929050565b60008060408385031215611e0657600080fd5b611e0f83611dab565b946020939093013593505050565b6020808252825182820181905260009190848201906040850190845b81811015611e5557835183529284019291840191600101611e39565b50909695505050505050565b8015158114610bbe57600080fd5b8035611dc281611e61565b60008060008060008060008060e0898b031215611e9657600080fd5b883567ffffffffffffffff80821115611eae57600080fd5b818b0191508b601f830112611ec257600080fd5b813581811115611ed157600080fd5b8c6020828501011115611ee357600080fd5b60209283019a509850508901359550604089013594506060890135935060808901359250611f1360a08a01611e6f565b915060c089013590509295985092959890939650565b6000815180845260005b81811015611f4f57602081850181015186830182015201611f33565b506000602082860101526020601f19601f83011685010191505092915050565b6000610100808352611f838184018c611f29565b602084019a909a525050604081019690965260608601949094526080850192909252151560a0840152151560c0830152151560e090910152919050565b600060208284031215611fd257600080fd5b611fdb82611dab565b9392505050565b61018081526000611ff761018083018f611f29565b602083019d909d5250604081019a909a5260608a0198909852608089019690965260a088019490945260c08701929092526001600160a01b031660e086015215156101008501521515610120840152151561014083015261016090910152919050565b60008060006060848603121561206f57600080fd5b505081359360208301359350604090920135919050565b602080825260139082015272119a5b1948191bd95cc81b9bdd08195e1a5cdd606a1b604082015260600190565b6020808252600e908201526d2737ba103334b6329037bbb732b960911b604082015260600190565b634e487b7160e01b600052601160045260246000fd5b8082028115828204841417612108576121086120db565b92915050565b80820180821115612108576121086120db565b60208082526012908201527146696c65206973206e6f742061637469766560701b604082015260600190565b60208082526010908201526f119a5b19481a185cc8195e1c1a5c995960821b604082015260600190565b6020808252601690820152754e6f20646f776e6c6f6164732072656d61696e696e6760501b604082015260600190565b81810381811115612108576121086120db565b6000600182016121cc576121cc6120db565b5060010190565b634e487b7160e01b600052604160045260246000fd5b600181811c908216806121fd57607f821691505b6020821081036106c657634e487b7160e01b600052602260045260246000fd5b601f821115612265576000816000526020600020601f850160051c810160208610156122465750805b601f850160051c820191505b8181101561105057828155600101612252565b505050565b815167ffffffffffffffff811115612284576122846121d3565b6122988161229284546121e9565b8461221d565b602080601f8311600181146122cd57600084156122b55750858301515b600019600386901b1c1916600185901b178555611050565b600085815260208120601f198616915b828110156122fc578886015182559484019460019091019084016122dd565b508582101561231a5787850151600019600388901b60f8161c191681555b5050505050600190811b01905550565b60808152846080820152848660a0830137600060a08683018101919091526020820194909452911515604083015215156060820152601f909201601f191690910101919050565b634e487b7160e01b600052603260045260246000fd5b60006020828403121561239957600080fd5b5051919050565b6000602082840312156123b257600080fd5b8151611fdb81611e6156fe9b779b17422d0df92223018b32b4d1fa46e071723d6817e2486d003becc55f00a2646970667358221220ab1f1e664c12a9838af682671600269ebfd18366a16a32b7bc8962487c94472364736f6c63430008180033",
  "linkReferences": {},
  "deployedLinkReferences": {}
}